:08000000803102288731EA2F4C
:100BDE00640080010131890BF02D0034FE001200FB
:100BEE001E00FE0BF62D00340134003400340034A8
:100BFE0001340134FF34053403340534053405342F
:100C0E000534F00021001D141D0883399D001D08B8
:100C1E0070049D000530890B122E000021009D14DA
:100C2E009D18172E1D101C080800F0302100990089
:100C3E001030950020008C0122008C01033023001F
:100C4E008C0021009D0160309E000F308C0008301A
:100C5E0024008C000A30210097008B010800003020
:100C6E00FB000030FA000030F9000030F800701C74
:100C7E00482E7408F8077508F93D7608FA3D77088E
:100C8E00FB3D0130F435F50DF60DF70D890B492EB0
:100C9E000130F336F20CF10CF00C890B502E730868
:100CAE00720471047004031D3E2E7B08F3007A0853
:100CBE00F2007908F1007808F0000800F100083021
:100CCE00F0007008F20072080319862EF11F782EBC
:100CDE00FF30F0007208303E8600870170088100F8
:100CEE007D2E7208303E8600870181017135F0003D
:100CFE007008F1000130F2027208031D6D2E200003
:100D0E00A801A901AA01AB01AC01AD01AE01AF0171
:100D1E00A001A101A201A301A401A501A601A701A1
:100D2E00080020004008F3003F08F2003E08F100E2
:100D3E003D08F0004130F700C630F6004E30F500A9
:100D4E006D30F40086313626863173082000C000DF
:100D5E007208BF007108BE007008BD003930BD07B3
:100D6E003030BE3D0030BF3D0030C03D3D08CA00B2
:100D7E003E08CB003F08CC004008CD001030CE001E
:100D8E00CD37CC0CCB0CCA0CCE0BC72EFF304A0580
:100D9E00FC007F304B05FD00080086311C26863195
:100DAE0020008C12E43000320032890BDA2E003231
:100DBE00003204308631082686312000CF004F08DD
:100DCE00D20074308631082686312000CF004F08BD
:100DDE00D3005308863165268631803020005302B9
:100DEE00031CFC2EC101C10A002F81305302031CCB
:100DFE00C10180305202031C0E2F05304602031C27
:100E0E001E2F1F30460203181E2FFF301B2F81305E
:100E1E00520203181E2F05304602031C1E2F1F30D0
:100E2E00460203181E2F9630CF004F08C300053020
:100E3E00CF004F08C60746084306031D332FC601D1
:100E4E004608031D332F8631982686317C080739D4
:100E5E002000CF004F08C50041080319422FF001B2
:100E6E00F1010830CF004F08F2004508D0005008BD
:100E7E00F3004608512FF00120004608CF004F081E
:100E8E00F1000830D0005008F2004508D10051089A
:100E9E00F300003087315E278631D0302000CF003E
:100EAE00C930890B582FCF0B582F0032E02EF5008A
:100EBE0072080319080072087306031DAA2F700822
:100ECE00F40074082000B9000830F4007408B8006B
:100EDE00380803197E2F0C160000B91F0C12B935F5
:100EEE000C1201302000B8023808031D722F75084D
:100EFE00F4007408B9000830F4007408B80038081B
:100F0E000319952F0C160000B91F0C12B9350C12CF
:100F1E0001302000B8023808031D892F7108F40033
:100F2E007408B9000830F4007408B80038080319C2
:100F3E00E72F0C160000B91F0C12B9350C12013038
:100F4E002000B8029D2F2000B9010830F40074086B
:100F5E00B80038080319BF2F0C160000B91F0C1269
:100F6E00B9350C1201302000B8023808031DB32F1A
:100F7E00B9010830F4007408B80038080319D32FEB
:100F8E000C160000B91F0C12B9350C1201302000DE
:100F9E00B8023808031DC72FB9010830F4007408D1
:100FAE00B80038080319E72F0C160000B91F0C12F1
:100FBE00B9350C1201302000B8023808031DDB2FA2
:100FCE000130F2025F2FFB308400853085003D300A
:100FDE008600003087000D308531F52587312030B1
:100FEE008400003085001D308531EF2520008631CC
:040FFE00D42E1E349B
:020000040001F9
:04000E008CC9FFDFBB
:00000001FF
